:020000040800F2
:1000000000000220B9020008C1020008C502000871
:100010000D03000811030008590300080000000048
:10002000000000000000000000000000A103000824
:10003000A503000800000000A9030008AD030008A4
:10004000BD030008BD030008BD030008BD03000890
:10005000BD030008BD030008BD030008BD03000880
:10006000BD030008BD030008BD030008BD03000870
:10007000BD030008BD030008BD030008BD03000860
:10008000BD030008BD030008BD030008BD03000850
:10009000BD030008BD030008BD030008BD03000840
:1000A000BD030008BD030008BD030008BD03000830
:1000B000BD030008BD030008BD030008BD03000820
:1000C000BD030008BD030008BD030008BD03000810
:1000D000BD030008BD030008BD030008BD03000800
:1000E000BD030008BD030008BD030008BD030008F0
:1000F000BD030008BD030008BD030008BD030008E0
:10010000BD030008BD030008BD030008BD030008CF
:10011000BD030008BD030008BD030008BD030008BF
:10012000BD030008BD030008BD030008BD030008AF
:10013000BD030008BD030008BD030008BD0300089F
:10014000BD030008BD030008BD030008BD0300088F
:10015000BD030008BD030008BD030008BD0300087F
:10016000BD030008BD030008BD030008BD0300086F
:10017000BD030008BD030008BD0300080000000027
:10018000BD030008BD03000800B583B000F074FB98
:10019000384B394A1360394A136039490CE00A6810
:1001A0004B6801F10C04886803E01168196004339E
:1001B00004329842F9D82146324B9942EFD32E4B64
:1001C0001A68314B9A4204D12C4B1A682F4B9A4231
:1001D00000D0FEE7274B2E4A13602E4A13602E4BA9
:1001E0000AE0194651F8082B5B6802E00020106015
:1001F00004329342FAD80B46284A9342F1D3244B57
:100200001B6813B9234B1B6803B1FEE700F038FBF2
:1002100001A8694600F0CAFA214B224DED1AAD1033
:10022000002404E01E4B53F8243098470134A542C3
:10023000F8DC1D4B1D4DED1AAD10002404E01A4BE7
:1002400053F8243098470134A542F8DC019800990E
:1002500000F05CFC0546164B164CE41AA41004E0B2
:10026000013C134B53F824309847002CF8DC284607
:1002700000F06EFABABADECA000000208400002046
:10028000C0030008D8030008785634123254769818
:100290008800002020010020D8030008E80300089F
:1002A000E8030008E8030008E8030008E803000882
:1002B000E8030008E803000808B5FFF765FF00BF82
:1002C00000BEFEE71EF0040F0CBFEFF30880EFF353
:1002D00009807146364A10472DE9F04182B0074641
:1002E0008846084C666BA56BA46A074800F072FA52
:1002F000CDF800803846214632462B4600F0C4FA3D
:1003000000BEFEE700ED00E0EC15000800BEFEE7D1
:100310001EF0040F0CBFEFF30880EFF30980714665
:10032000244A10472DE9F04182B007468846084C20
:10033000666BA56BA46A074800F04CFACDF8008004
:100340003846214632462B4600F09EFA00BEFEE7B4
:1003500000ED00E0FC1500081EF0040F0CBFEFF3E9
:100360000880EFF309807146134A10472DE9F041E8
:1003700082B007468846084C666BA56BA46A07489E
:1003800000F028FACDF800803846214632462B4648
:1003900000F07AFA00BEFEE700ED00E00816000863
:1003A00000BEFEE700BEFEE700BEFEE770470000AD
:1003B000D9020008250300086D03000800BEFEE70F
:1003C0005016000800000020880000205016000889
:1003D0000000001000000010880000202401002010
:0803E0000000001000000010F5
:1003E8002DE9F04105460E464C4B98422BD003F5BB
:1003F8008063984227D003F58063984223D003F5A1
:10040800806398421FD003F5806398421BD003F5A0
:100418008063984217D003F58063984213D003F5A0
:10042800806398420FD003F5806398420BD003F5A0
:100438008063984207D003F58063984203D0384818
:10044800CF2100F0B7F933881BB93548D02100F027
:10045800B1F93379032B03D93148D12100F0AAF936
:10046800F379022B03D92E48D22100F0A3F90024F6
:100478004FE00123A34032681A409A4248D12B68C2
:1004880067004FF0030808FA07F86FEA080803EA5C
:1004980008032B602A683379BB4013432B603379F8
:1004A800013BDBB2012B24D87379032B03D91C48F9
:1004B800E42100F07FF9AB6808EA0303AB60AA689F
:1004C8007379BB401343AB60B379012B03D914484C
:1004D800EB2100F06FF96968A3B201229A4021EA82
:1004E80002026A606A68B17901FA03F39BB21343A6
:1004F8006B60EA68A3B25B00032101FA03F322EA06
:100508000303EB60EB68F27902FA07F71F43EF6029
:1005180001340F2CADD9BDE8F08100BF00000240C6
:10052800D413000838B504460D46324B98422CD0F7
:1005380003F58063984228D003F58063984224D05D
:1005480003F58063984220D003F5806398421CD05D
:1005580003F58063984218D003F58063984214D05D
:1005680003F58063984210D003F5806398420CD05D
:1005780003F58063984208D003F58063984204D05D
:100588001D484FF4A47100F015F96B1E9BB2012BA6
:1005980028D9042D26D0082D24D0102D22D0202D86
:1005A80020D0402D1ED0802D1CD0B5F5807F19D0CD
:1005B800B5F5007F16D0B5F5806F13D0B5F5006F8F
:1005C80010D0B5F5805F0DD0B5F5005F0AD0B5F550
:1005D800804F07D0B5F5004F04D0074840F24911C5
:1005E80000F0E8F8236903EA0500003018BF01208D
:1005F80038BD00BF00000240D413000838B50446D7
:100608000D461C4B98422CD003F58063984228D0A5
:1006180003F58063984224D003F58063984220D084
:1006280003F5806398421CD003F58063984218D084
:1006380003F58063984214D003F58063984210D084
:1006480003F5806398420CD003F58063984208D084
:1006580003F58063984204D0074840F29F1100F0E8
:10066800A9F825B904484FF4D07100F0A3F8258300
:1006780038BD00BF00000240D413000838B5044656
:100688000D461C4B98422CD003F58063984228D025
:1006980003F58063984224D003F58063984220D004
:1006A80003F5806398421CD003F58063984218D004
:1006B80003F58063984214D003F58063984210D004
:1006C80003F5806398420CD003F58063984208D004
:1006D80003F58063984204D007484FF4DA7100F0BC
:1006E80069F825B9044840F2B51100F063F865834C
:1006F80038BD00BF00000240D413000838B50446D6
:100708000D460E4B034003B920B90D4840F2017164
:1007180000F050F8012D04D9094840F2037100F0A7
:1007280049F825B1074B1A6B14431C6338BD054BB8
:100738001A6B22EA04041C6338BD00BF00E80B8171
:10074800FC13000800380240FEE700BF08B5034864
:1007580000F056F80120FFF7F7FF00BF2414000847
:1007680008B50D4B1B6813B90C4A0B4B1A600A4BA2
:100778001B68033020F003001844094A904206D948
:1007880000F000FA0C2303604FF0FF3008BD024A66
:100798001060184608BD00BF8C000020240100200E
:1007A80000FC012001230360014B0B60704700BF70
:1007B8000400002008B503460A460348194600F01D
:1007C80005F8FFF7C3FF00BF781400080FB400B5A1
:1007D80083B004AB53F8042B01930848802100F040
:1007E80009FA011E03DD054800F03EF801460846F7
:1007F80003B05DF804EB04B0704700BF940000201C
:1008080010B5044600F0C4F90146204600F02CF863
:100818000248012100F028F810BD00BF6815000843
:1008280010B400221AE04FF06043D3F8803E13F072
:10083800010F06D04FF06043D3F8003E13F0010FCC
:1008480001D110460DE04FF060431B68002BFAD031
:1008580004784FF060431C70013201308A42E2D3C1
:1008680008465DF8044B704708B5FFF7D9FF08BD87
:1008780008B500F0DDF808BD08B500F0FBF808BDC4
:10088800F8B504460D4617461E462648FFF79EFF54
:1008980025482168FFF79AFF24486168FFF796FF0B
:1008A8002348A168FFF792FF2248E168FFF78EFF0F
:1008B80021482169FFF78AFF20486169FFF786FF11
:1008C8001F48A169FFF782FF1E48E169FFF77EFF15
:1008D8001D48FFF77BFF1D482946FFF777FF1C4C93
:1008E800E16A1C48FFF772FF216B1B48FFF76EFF98
:1008F800E16B1A48FFF76AFF15F0800F03D018481C
:100908003946FFF763FF15F4004F03D01548314609
:10091800FFF75CFF1448FFF759FF14480699FFF7E3
:1009280055FFF8BDD0140008E0140008F0140008C2
:1009380000150008101500082015000830150008DB
:100948004015000850150008601500086C150008CF
:1009580000ED00E07C1500088C1500089C150008C7
:10096800AC150008BC150008CC150008D415000803
:1009780082B0002301930093294B1A6842F4803215
:100988001A60274B1B6803F400330093019B013363
:100998000193009B1BB9019BB3F5A04FF1D1204BEC
:1009A8001B6813F4003F14BF012300230093009B2E
:1009B800012B32D11A4B1A6C42F080521A64194A30
:1009C800116841F4404111609A689A609A6842F44B
:1009D80000429A609A6842F4A0529A60124A5A6099
:1009E8001A6842F080721A600D4B1B6813F0007F82
:1009F800FAD040F205720D4B1A60A3F580639A682D
:100A080022F003029A609A6842F002029A60044B4C
:100A18009B6803F00C03082BF9D102B0704700BFA4
:100A2800003802400070004008544007003C024073
:100A380008B50D4B1A6842F001021A60002199604E
:100A48001A6822F0847222F480321A60074A5A60C7
:100A58001A6822F480221A60D960FFF789FF4FF0E4
:100A68000062034B9A6008BD003802401030002431
:100A780000ED00E01E4B9B6803F00C03042B06D02E
:100A8800082B08D023BB1B4A1B4B1A6023E01B4AC8
:100A9800194B1A601FE0164B59685B6803F03F0357
:100AA80011F4800F14BF154A124AB2FBF3F3104A2F
:100AB8005268C2F3881202FB03F20D4B5B68C3F362
:100AC800014301335B00B2FBF3F20B4B1A6002E007
:100AD800084A094B1A60064B9B68C3F30313084A7C
:100AE800D15CC9B2044B1A68CA401A60704700BF8B
:100AF800003802400024F4001C00002000127A0094
:100B08000C00002070B582B008200121FFF7F6FD27
:100B18004FF44053009301258DF8045000248DF8BC
:100B280006408DF8074003268DF80560134869468E
:100B3800FFF756FC28462946FFF7E0FD00958DF89B
:100B480004408DF8064002238DF807308DF80560C3
:100B58000B486946FFF744FC09480121FFF7E2FC0E
:100B680028B106484FF44051FFF748FDF4E7034821
:100B78004FF44051FFF782FDEEE700BF000C024042
:100B880000000240014B1868704700BF8000002039
:100B9800034613F8012B002AFBD1181A01387047B5
:100BA80030B5141E9BB0054604DA8B2303604FF062
:100BB800FF301CE04FF4027200910491ADF80C2054
:100BC80014BF04F1FF3121464FF6FF7202910591DF
:100BD800ADF80E2069461A461E9B00F077F8431CB4
:100BE800BCBF8B232B6014B1009B00221A701BB072
:100BF80030BD000073B50093054B06460D461446FC
:100C0800186831462A462346FFF7CAFF02B070BD6E
:100C1800800000202DE9F0478D68AB4281460C46E4
:100C280092461F4643D38B8913F4906F3DD02668B4
:100C38000969C1EB06086669022206EB460696FBBF
:100C4800F2F608F101023A44964238BF16465B05AF
:100C58000FD5314600F026FB054698B1216942467A
:100C680000F0B7FAA38923F4906343F08003A381CB
:100C780013E0324600F06AFB054670B94846216920
:100C880000F0CCFA0C23C9F80030A38943F04003E4
:100C9800A3814FF0FF30BDE8F087256166614544C8
:100CA800C8EB06062560A6603D46AF4200D23D4629
:100CB8002A462068514600F095FAA3685B1BA3609A
:100CC80023681D4425600020BDE8F0872DE9F04326
:100CD8009DB0074603938B891C060D4616460CD516
:100CE8000B6953B9402100F0DDFA2860286110B97A
:100CF8000C233B60C8E040236B6100230993202349
:100D08008DF8293030238DF82A3033461C4613F8E5
:100D1800012B1AB9B4EB06090FD002E0252AF5D148
:100D2800F8E73846294632464B46FFF773FF01304D
:100D380000F0A580099B4B4409932378002B00F011
:100D48009E8000234FF0FF32049307930592069389
:100D58008DF853301A9304F101094C464D4E217811
:100D68003046052200F026FA09F10109049B28B152
:100D7800861B0120B04003430493EEE7D90644BF25
:100D880020228DF853201A0744BF2B228DF85320B8
:100D980022782A2A02D0079B21460EE0039A111DC9
:100DA80012680391002A01DB079204E0524243F0E3
:100DB80002030792049301340AE00C4601312278B9
:100DC800303A092A03D80A2000FB0323F5E70793E2
:100DD80023782E2B1AD163782A2B0AD1039B1A1D4C
:100DE8001B680392002B04F10204B8BF4FF0FF33D5
:100DF8000BE0611C00230C4601312278303A092AA5
:100E080003D80A2000FB0323F5E70593224E217837
:100E18003046032200F0CEF930B1861B049B4020F7
:100E2800B04003430493013421781C488DF82810FE
:100E38000622661C00F0BEF988B1194B33B9039B32
:100E4800073323F007030833039314E003AB00933D
:100E5800384604A92A46134BAFF3008007E003ABDA
:100E68000093384604A92A460E4B00F08FF8B0F1DB
:100E7800FF3F804603D0099B4344099345E7AB896C
:100E88005B0601D4099801E04FF0FF301DB0BDE8C2
:100E9800F08300BF1A160008201600082416000860
:100EA800000000001D0C00082DE9F84315461F46F8
:100EB8008A680B69DDF820809A42A8BF13462B6028
:100EC80091F8432006460C460AB101332B6023688B
:100ED800990602D52B6802332B60236813F00609A4
:100EE8001DD094F843302268003318BF01239206BE
:100EF8001FD5E1185A1C302081F84300224494F889
:100F0800451082F84310023313E03046394604F1A5
:100F180019020123C047013007D009F10109E2682D
:100F28002B68D31A9945F0DBDBE74FF0FF30BDE8BB
:100F3800F8833046394604F14302C0470130F4D003
:100F480023682A68E16803F00603042B08BFC2EB94
:100F580001052369A2680CBF25EAE57500259A42B8
:100F6800C4BFC3EB0203ED184FF00009A9450ADA24
:100F78003046394604F11A020123C0470130D4D063
:100F880009F10109F2E70020BDE8F8832DE9FF47E0
:100F98000E7E0C9D6E2E80460C4691469A4601F1B7
:100FA800430000F0A58011D8632E22D009D8002E66
:100FB80000F0AF80582E40F0BF8081F845607B4A32
:100FC8004FE0642E1ED0692E1CD0B5E0732E00F0C1
:100FD800A48009D86F2E2BD0702E40F0AD800B68FE
:100FE80043F020030B6038E0752E21D0782E34D0E2
:100FF800A2E02B681A1D1B682A6001F1420781F8DC
:1010080042309DE022682B6812F0800F03D01A1D31
:101018002A601D6805E05106F9D51A1D2A60B3F942
:101028000050002D39DA2D236D4284F8433034E026
:1010380022682B6812F0800F03D01A1D2A601D68E1
:1010480004E05206F9D51A1D2A601D88237E574AE6
:101058006F2B14BF0A2308231BE07823544A84F813
:1010680045302368296813F0800F01F104062E60CB
:1010780001D00D6802E05F06FBD50D88DE0744BF8E
:1010880043F0200323601DB9236823F02003236065
:101098001023002184F8431001E0444A0A236668BB
:1010A800A660002E03DB216821F00401216005B948
:1010B8006EB104F14201B5FBF3F603FB16550F467A
:1010C800555D01F801593546002EF4D100E0074678
:1010D800082B0AD12368DD0707D5626823699A427D
:1010E80003DC302307F8013C013FC01B20612CE0E2
:1010F80009682B68626911F0800F04D0191D2960F6
:101108001B681A6005E04906F8D5191D29601B6897
:101118001A8000232361074617E02B681A1D2A60EE
:101128001F683846FFF734FD63682061984288BF1E
:1011380023612369636005E004F1420784F8426093
:1011480001232361002384F84330CDF800A04046F2
:10115800214603AA4B46FFF7A7FE013002D14FF004
:10116800FF301FE0404649463A462369D0470130E0
:10117800F5D023689B0705D4E068039B9842B8BF65
:1011880018460FE00025E268039BD31A9D42F3DA64
:101198004046494604F119020123D0470130DED008
:1011A8000135F0E704B0BDE8F08700BF2B16000852
:1011B8003C16000810B5C9B202449042034606D056
:1011C8001C788C4200F10100F7D1184610BD0020B0
:1011D80010BD10B50023934203D0CC5CC454013336
:1011E800F9E710BD814270B501D300230EE08C18D9
:1011F800A042FAD28518134613F1FF3305D35142A2
:1012080066182944F65CCE54F6E770BD934203D0C5
:10121800CC5CC4540133F9E770BD000030B5002937
:101228003CD051F8042C0B1F1D49002AB8BF9B184D
:101238000A680C4612B95A600B6030BD93420DD251
:1012480019685818904203D15A58114442681960D5
:101258005A60236030BD994203D80A465168002974
:10126800F9D1146815199D420AD11B682344D01876
:101278008842136012D10868034413604B680CE07D
:1012880002D90C23036030BD18681C188C4203D1A6
:101298000C684968204418605960536030BD00BF2D
:1012A8001801002070B5CD1C25F0030508350C2D5C
:1012B80038BF0C25002D06463FDB8D423DD3214B20
:1012C8001C6818462146A1B10B685B1B0ED40B2B7A
:1012D80003D90B60CC18CD501FE08C4202D1626854
:1012E80002601AE04B6863600C4616E00C464968D9
:1012F800E9E7154C23681BB9304600F04DF820602B
:101308002946304600F048F8431C014615D0C41C55
:1013180024F0030484420AD1256004F10B00231D44
:1013280020F00700C31A0BD05A42E25070BD304675
:10133800611A00F031F80130EED10C23336000203F
:1013480070BD00BF1801002014010020F8B5064642
:1013580014460D4621B91146BDE8F840FFF7A2BF73
:101368001AB9FFF75BFF2046F8BD00F025F8A04248
:101378000ED230462146FFF795FF074650B1294661
:101388002246FFF726FF30462946FFF747FF01E0D0
:101398002846F8BD3846F8BD38B5064C0023054642
:1013A80008462360FFF7DCF9431C02D1236803B128
:1013B8002B6038BD1C01002051F8040C002802DA0B
:1013C80004390B5818440438704700002E2E2F7328
:1013D800797374656D2F7372632F73746D3332660E
:1013E800342F73746D3332663478785F6770696F41
:1013F8002E6300002E2E2F73797374656D2F737210
:10140800632F73746D333266342F73746D333266A1
:101418003478785F7263632E6300000061626F72D4
:101428007428292C2065786974696E672E2E2E0021
:101438002C2066756E6374696F6E3A200000000098
:10144800617373657274696F6E202225732220663A
:1014580061696C65643A2066696C6520222573228F
:101468002C206C696E65202564257325730A00009D
:101478006173736572745F706172616D282920668B
:1014880061696C65643A2066696C6520222573225F
:101498002C206C696E652025640A00006D61696EF8
:1014A80028617267633D25642C20617267763D5B15
:1014B800000000002C2000002225732200000000FC
:1014C8005D293B0A00000000537461636B2066725B
:1014D800616D653A0A000000205230203D20202529
:1014E8003038580A00000000205231203D202025C5
:1014F8003038580A00000000205232203D202025B4
:101508003038580A00000000205233203D202025A2
:101518003038580A0000000020523132203D202582
:101528003038580A00000000204C52203D20202569
:101538003038580A00000000205043203D20202564
:101548003038580A0000000020505352203D202512
:101558003038580A000000004653522F4641523A8C
:101568000A0000002043465352203D2020253038F1
:10157800580A00002048465352203D202025303884
:10158800580A00002044465352203D202025303878
:10159800580A00002041465352203D20202530386B
:1015A800580A0000204D4D464152203D2025303834
:1015B800580A00002042464152203D20202530385C
:1015C800580A00004D6973630A000000204C522F2E
:1015D8004558435F52455455524E3D2025303858A2
:1015E8000A0000005B486172644661756C745D0AAC
:1015F800000000005B4275734661756C745D0A00FB
:101608005B55736167654661756C745D0A0000001F
:101618004300232D302B2000686C4C00656667451D
:101628004647003031323334353637383941424352
:101638004445460030313233343536373839616203
:0516480063646566000B
:1016500078563412900000200000000000000000C6
:10166000000000000102030406070809007A030ACB
:10167000000000000000000000000000000000006A
:10168000000000000000000000000000000000005A
:101690001816000800000000000000000000000014
:1016A000000000000000000000000000000000003A
:1016B000000000000000000000000000000000002A
:1016C000000000000000000000000000000000001A
:0816D00020000020325476983E
:040000050800018965
:00000001FF
