:020000040800F2
:100000000000022071020008770200087B0200084D
:10001000C1020008C50200080D030008000000002E
:100020000000000000000000000000005503000870
:1000300059030008000000005D0300086103000888
:1000400071030008710300087103000871030008C0
:1000500071030008710300087103000871030008B0
:1000600071030008710300087103000871030008A0
:100070007103000871030008710300087103000890
:100080007103000871030008710300087103000880
:100090007103000871030008710300087103000870
:1000A0007103000871030008710300087103000860
:1000B0007103000871030008710300087103000850
:1000C0007103000871030008710300087103000840
:1000D0007103000871030008710300087103000830
:1000E0007103000871030008710300087103000820
:1000F0007103000871030008710300087103000810
:1001000071030008710300087103000871030008FF
:1001100071030008710300087103000871030008EF
:1001200071030008710300087103000871030008DF
:1001300071030008710300087103000871030008CF
:1001400071030008710300087103000871030008BF
:1001500071030008710300087103000871030008AF
:10016000710300087103000871030008710300089F
:10017000710300087103000871030008000000000B
:10018000710300087103000807B500F040FF2E4B13
:100190002E4AA3F10C0191420FD253F8081C53F8D8
:1001A0000C4C53F8040C0A46904204D9651AAD5819
:1001B00042F8045BF8E70C33EAE7254B254AA3F144
:1001C000080191420BD253F8082C53F8041C8A42C0
:1001D00003D2002042F8040BF9E70833EEE700F001
:1001E00018FF684601A900F0BDFE1B4D1B4BED1A20
:1001F000AD1000241E46AC4204DA56F82420904785
:100200000134F8E7164B174DED1AAD1000241E46C9
:10021000AC4204DA56F8242090470134F8E7124D36
:10022000124C9DE8030001F0A7F8641BA4100646D9
:1002300005EB8405002C04DD55F8043D013C98478E
:10024000F8E7304600F062FE800300088C030008E7
:10025000940300089C0300089C0300089C0300080A
:100260009C0300089C0300089C0300089C030008F2
:1002700008B5FFF789FF00BEFEE71EF0040F0CBFB4
:10028000EFF30880EFF309807146364A10472DE9F5
:10029000F341094C666BA56BA46A8846074607487C
:1002A00000F074FECDF800803846214632462B46D9
:1002B00000F0B2FE00BEFEE700ED00E0D81D000831
:1002C00000BEFEE71EF0040F0CBFEFF30880EFF353
:1002D00009807146244A10472DE9F341094C666BA9
:1002E000A56BA46A88460746074800F04FFECDF884
:1002F00000803846214632462B4600F08DFE00BE77
:10030000FEE700BF00ED00E0E51D00081EF0040F51
:100310000CBFEFF30880EFF309807146134A1047D2
:100320002DE9F341094C666BA56BA46A8846074624
:10033000074800F02BFECDF80080384621463246B3
:100340002B4600F069FE00BEFEE700BF00ED00E0B6
:10035000F11D000800BEFEE700BEFEE700BEFEE79E
:10036000704700008F020008D9020008210300082E
:0403700000BEFEE7E6
:10037400341E00080000002080000020341E000805
:100384000000001000000010800000201401002074
:08039400000000100000001041
:10039C002DE9F843484B984204460D462BD003F503
:1003AC008063984227D003F58063984223D003F5ED
:1003BC00806398421FD003F5806398421BD003F5ED
:1003CC008063984217D003F58063984213D003F5ED
:1003DC00806398420FD003F5806398420BD003F5ED
:1003EC008063984207D003F58063984203D033486A
:1003FC00CF2100F0B9FD2B881BB93048D02100F07B
:10040C00B3FD2B79032B03D92C48D12100F0ACFD83
:10041C00EB79022B03D92948D22100F0A5FD002647
:10042C0001232A68B34003EA020999453ED17700BB
:10043C004FF00308236808FA07F86FEA080808EA7F
:10044C00030323602B79226803FA07F1013B0A436B
:10045C00012B226020D86B79032B03D91748E42198
:10046C0000F082FDA36808EA0303A3606B79A2681D
:10047C00BB401343A360AB79012B03D90F48EB218D
:10048C0000F072FD636823EA09036360AB7962686C
:10049C00B3409BB213436360E368EA7908EA030351
:1004AC00E360E36802FA07F71F43E7600136102E9A
:1004BC00B6D1BDE8F88300BF00000240D21B000893
:1004CC002A4B984270B504460E4615462CD003F5BF
:1004DC008063984228D003F58063984224D003F5BA
:1004EC008063984220D003F5806398421CD003F5BA
:1004FC008063984218D003F58063984214D003F5BA
:10050C008063984210D003F5806398420CD003F5B9
:10051C008063984208D003F58063984204D0144855
:10052C0040F2492100F020FD0F2E04D9104840F272
:10053C004A2100F019FD0D2D06D90F2D04D00C48C1
:10054C0040F24B2100F010FD06F00703F60804EB17
:10055C0086049B00216A0F229A4021EA0202226241
:10056C00226A05FA03F31343236270BD00000240B4
:10057C00D21B00080E4B034070B505460E4603B95E
:10058C0020B90C4840F2017100F0EEFC012E0A4C2F
:10059C0005D9084840F2037100F0E6FC00E016B102
:1005AC00236B1D4302E0236B23EA0505256370BD15
:1005BC0000E80B81F91B00080038024010F4585F6A
:1005CC0070B505460E4600D120B90B4840F2777144
:1005DC0000F0CAFC012E094C05D907484FF4EF6115
:1005EC0000F0C2FC00E016B1236C1D4302E0236C4A
:1005FC0023EA0505256470BDF91B0008003802408C
:10060C0038B5484B984204460D4637D0B0F1804F70
:10061C0034D0A3F57C43984230D003F580639842E4
:10062C002CD003F58063984228D003F58063984260
:10063C0024D003F58063984220D003F57043984290
:10064C001CD003F57053984218D003F58063984280
:10065C0014D003F58063984210D0A3F598339842D8
:10066C000CD003F58063984208D003F58063984260
:10067C0004D02D4840F2251100F076FC6B8823F055
:10068C00100252B123F04002202A06D0402B04D095
:10069C0025484FF4937100F067FC2B8923F480728A
:1006AC003AB1B3F5007F04D01F4840F2271100F097
:1006BC005BFC1C4A238894429BB212D002F58062E8
:1006CC0094420ED0B4F1804F0BD0A2F580329442FC
:1006DC0007D002F58062944203D002F58062944206
:1006EC0003D16A8823F070031343104A944208D054
:1006FC0002F58062944204D023F440732A899BB2A1
:10070C00134323806B68E3622B882385054B9C4243
:10071C0003D003F580639C4201D1AB7A238601237D
:10072C00A38238BD000001401F1C000800100040CF
:10073C0038B5294B984204460D4637D0B0F1804F5E
:10074C0034D0A3F57C43984230D003F580639842B3
:10075C002CD003F58063984228D003F5806398422F
:10076C0024D003F58063984220D003F5704398425F
:10077C001CD003F57053984218D003F5806398424F
:10078C0014D003F58063984210D0A3F598339842A7
:10079C000CD003F58063984208D003F5806398422F
:1007AC0004D00E4840F2532100F0DEFB012D05D998
:1007BC000A484FF4157100F0D7FB00E025B12388EF
:1007CC009BB243F0010304E0238823F001031B04D4
:1007DC001B0C238038BD00BF000001401F1C00080B
:1007EC005B4B98422DE9F04104460D462FD0B0F1F9
:1007FC00804F2CD0A3F57C43984228D003F580631E
:10080C00984224D003F58063984220D003F57843B6
:10081C0098421CD003F57053984218D003F58063AE
:10082C00984214D003F58063984210D0A3F5983306
:10083C0098420CD003F58063984208D003F580638E
:10084C00984204D0434840F2A62100F08DFB2B883F
:10085C0023F0100223F0300392B233B1602A04D09B
:10086C003C4840F2A72100F07FFB6B88012B04D998
:10087C0038484FF42A7100F077FBAB8923F0020360
:10088C009BB223B1334840F2A92100F06DFB238CBD
:10089C00B5F800806E8823F001031B041B0C238425
:1008AC00238CA788228B22F073021204120C42EACA
:1008BC000808AA8923F002031B0416431B0CB6B2CA
:1008CC001E43234B9C42BFB203D003F580639C4272
:1008DC0036D1AB8823F004039BB223B11D4840F200
:1008EC00C62100F041FBEB8923F008039BB223B136
:1008FC00184840F2C72100F037FB6B8A23F40073D1
:10090C009BB223B113484FF4327100F02DFB2B8AAC
:10091C0023F480739BB223B10E4840F2C92100F03E
:10092C0023FBEA892B8A26F008061643AA8826F0B0
:10093C00040616436A8A134327F440779BB21F437D
:10094C00AB68A780A4F8188063632684BDE8F081A7
:10095C00000001401F1C0008594B98422DE9F04142
:10096C0004460D461FD0B0F1804F1CD0A3F57C433C
:10097C00984218D003F58063984214D003F5806335
:10098C00984210D003F5784398420CD003F570537D
:10099C00984208D0A3F59433984204D0494840F2C9
:1009AC00F72100F0E1FA2B8823F0100223F030033A
:1009BC0092B233B1602A04D042484FF43E7100F039
:1009CC00D3FA6B88012B04D93E4840F2F92100F090
:1009DC00CBFAAB8923F002039BB223B1394840F226
:1009EC00FA2100F0C1FA238CB5F8008023F0100333
:1009FC001B041B0C2384268CA788238B23F4E6432F
:100A0C001B041B0C43EA082326F020061FFA83F86C
:100A1C003604AB89360C46EA03166B8846EA031695
:100A2C00274B9C42BFB2B6B203D003F580639C4205
:100A3C003DD1AB8823F004039BB223B121484FF482
:100A4C00467100F091FAEB8923F008039BB223B1B5
:100A5C001C4840F2193100F087FA6B8A23F40073BA
:100A6C009BB223B1174840F21A3100F07DFA2B8A61
:100A7C0023F480739BB223B1124840F21B3100F077
:100A8C0073FAEB8926F08006B6B246EA03162B8A77
:100A9C004FF6BF7227F44067324047EA8307AE88AF
:100AAC006B8A42EA061647EA8307B6B2BFB2AB6856
:100ABC00A780A4F81880A3632684BDE8F08100BF4A
:100ACC00000001401F1C0008544B98422DE9F041D6
:100ADC0004460D4617D0B0F1804F14D0A3F57C43DB
:100AEC00984210D003F5806398420CD003F58063D4
:100AFC00984208D003F57843984204D048484FF404
:100B0C00527100F031FA2B8823F0100223F03003DD
:100B1C0092B233B1602A04D0414840F2493100F01E
:100B2C0023FA6B88012B04D93D4840F24A3100F07E
:100B3C001BFAAB8923F002039BB223B1384840F275
:100B4C004B3100F011FA238CB5F8008023F480733C
:100B5C001B041B0C2384268CA788A38B23F0730304
:100B6C001B041B0C26F4007643EA08083604AB89F8
:100B7C00360C46EA03266B8846EA0326274B9C4232
:100B8C00BFB2B6B203D003F580639C423DD1AB88B3
:100B9C0023F004039BB223B121484FF45A7100F0A7
:100BAC00E3F9EB8923F008039BB223B11C4840F214
:100BBC00693100F0D9F96B8A23F400739BB223B12D
:100BCC00174840F26A3100F0CFF92B8A23F4807376
:100BDC009BB223B1124840F26B3100F0C5F9EB899E
:100BEC0026F40066B6B246EA03262B8A4FF6FF328D
:100BFC0027F44057324047EA0317AE886B8A42EA23
:100C0C00062647EA0317B6B2BFB2AB68A780A4F8B2
:100C1C001C80E3632684BDE8F08100BF0000014026
:100C2C001F1C00083E4B98422DE9F04104460D462E
:100C3C0017D0B0F1804F14D0A3F57C43984210D05C
:100C4C0003F5806398420CD003F58063984208D07A
:100C5C0003F57843984204D032484FF4667100F0A3
:100C6C0083F92B8823F0100223F0300392B233B1B6
:100C7C00602A04D02B4840F2993100F075F96B884A
:100C8C00012B04D9274840F29A3100F06DF9AB8959
:100C9C0023F002039BB223B1224840F29B3100F0B7
:100CAC0063F9238CAE89B5F8008023F480531B04C0
:100CBC001B0C2384238CA788A28B23F400531B04C6
:100CCC001B0C43EA06336E8822F4E64243EA0636EE
:100CDC001204134B120C42EA08229C42BFB21FFAB8
:100CEC0082F8B6B203D003F580639C420FD12B8AF5
:100CFC0023F480739BB223B10A4840F2B93100F05F
:100D0C0033F92B8A27F4804747EA8317BFB2AB68C5
:100D1C00A780A4F81C8023642684BDE8F08100BF62
:100D2C00000001401F1C000838B5224B98420446B5
:100D3C000D462FD0B0F1804F2CD0A3F57C439842B8
:100D4C0028D003F58063984224D003F58063984241
:100D5C0020D003F5784398421CD003F57053984289
:100D6C0018D003F58063984214D003F58063984241
:100D7C0010D0A3F5983398420CD003F580639842B9
:100D8C0008D003F58063984204D00B4840F2DB4155
:100D9C0000F0EAF825F0080323B1074840F2DC41E3
:100DAC0000F0E2F8238B23F008031B041B0C2B43ED
:100DBC00238338BD000001401F1C000838B51B4BB5
:100DCC00984204460D461FD0B0F1804F1CD0A3F5BD
:100DDC007C43984218D003F58063984214D003F5F5
:100DEC008063984210D003F5784398420CD003F5F9
:100DFC007053984208D0A3F59433984204D00C4811
:100E0C0040F2F94100F0B0F825F0080323B108488E
:100E1C0040F2FA4100F0A8F8238B23F400631B0482
:100E2C001B0C43EA05239BB2238338BD0000014011
:100E3C001F1C000838B5164B984204460D4617D0B7
:100E4C00B0F1804F14D0A3F57C43984210D003F539
:100E5C00806398420CD003F58063984208D003F568
:100E6C007843984204D00B4840F2165100F07CF8BD
:100E7C0025F0080323B1074840F2175100F074F82D
:100E8C00A38B23F008031B041B0C2B43A38338BD3B
:100E9C00000001401F1C000838B5174B984204464F
:100EAC000D4617D0B0F1804F14D0A3F57C43984277
:100EBC0010D003F5806398420CD003F58063984200
:100ECC0008D003F57843984204D00C4840F23351D3
:100EDC0000F04AF825F0080323B1084840F23451D9
:100EEC0000F042F8A38B23F400631B041B0C43EAB1
:100EFC0005239BB2A38338BD000001401F1C0008D2
:100F0C00FEE7000008B5034800F052F80120FFF797
:100F1C00F7FF00BF451C000808B50C4B1A680AB94E
:100F2C000B4A1A601B680B4A033020F0030018446C
:100F3C00904206D900F024FA0C2303604FF0FF30E6
:100F4C0008BD024A1060184608BD00BF8000002092
:100F5C001401002000FC012001230360014B0B60F5
:100F6C00704700BF0000002008B503460A4603483E
:100F7C00194600F005F8FFF7C5FF00BF951C0008E7
:100F8C000FB407B504AB802153F8042B0748019329
:100F9C0000F02EFA011E03DD044800F019F801469A
:100FAC00084603B05DF804EB04B0704785000020E0
:100FBC0010B5044600F0EAF90146204600F008F8A6
:100FCC0002480121BDE8104000F002B8601D000885
:100FDC0010B500238B4212D04FF06042D2F8804EF5
:100FEC00E4070CD5D2F8002ED20708D54FF060429A
:100FFC001468002CFAD0C45C14700133EAE718466C
:10100C0010BD00F07DB800F0F1B800002DE9F04102
:10101C0004462848069E90461F460D46FFF7B0FF33
:10102C0021682548FFF7ACFF61682448FFF7A8FF4B
:10103C00A1682348FFF7A4FFE1682248FFF7A0FF4F
:10104C0021692148FFF79CFF61692048FFF798FF51
:10105C00A1691F48FFF794FFE1691E481E4CFFF77A
:10106C008FFF1E48FFF78CFF29461D48FFF788FFAE
:10107C00E16A1C48FFF784FF216B1B48FFF780FFD8
:10108C00E16B1A48FFF77CFF2A0603D51848414646
:10109C00FFF776FF2B0403D516483946FFF770FF90
:1010AC001548FFF76DFF31461448BDE8F041FFF7D6
:1010BC0067BF00BFE21C0008F01C0008FD1C000804
:1010CC000A1D0008171D0008241D0008311D00080A
:1010DC003E1D00084B1D000800ED00E0581D0008E7
:1010EC00621D0008711D0008801D00088F1D00087E
:1010FC009E1D0008AD1D0008BC1D0008C21D000887
:10110C00344B1A6842F001021A6000229A60196886
:10111C0021F0847121F4803119602F4959601968CC
:10112C0082B021F480211960DA60009201921A6871
:10113C0042F480321A60274B1A6802F40032019292
:10114C00009A01320092019A1AB9009AB2F5A04F96
:10115C00F1D11B6813F4003318BF01230193019BD9
:10116C00012B05D01D4B4FF000629A6002B0704706
:10117C00184B1A6C42F080521A64194A116841F4E7
:10118C00404111609A689A609A6842F400429A60F1
:10119C009A6842F4A0529A60124A5A601A6842F055
:1011AC0080721A6019680B4A8901FBD50E4B40F20C
:1011BC0005711960936823F003039360936843F0FF
:1011CC0002039360034B9B6803F00C03082BF9D1CB
:1011DC00C8E700BF003802401030002400ED00E0EA
:1011EC000070004008544007003C0240174A184B5E
:1011FC00916801F00C01042903D0082903D0154A89
:10120C0018E0154A16E05068516810F4800F5068C9
:10121C0014BF114A0F4A01F03F01B2FBF1F20B4926
:10122C004968C1F30141C0F38810013142434900C0
:10123C00B2FBF1F21A60054A08499268C2F3031234
:10124C00895C1A68CA401A60704700BF00380240B7
:10125C00180000200024F40000127A00080000207E
:10126C0013B5164C08200121FFF784F920460C21F8
:10127C000222FFF725F920460D210222FFF720F963
:10128C0020460E210222FFF71BF9204602220F21D5
:10129C00FFF716F94FF47043009300238DF80630D6
:1012AC008DF8073002238DF804302046032369465D
:1012BC008DF80530FFF76CF802B010BD000C024041
:1012CC001FB50D4C04200121FFF778F900230522EE
:1012DC00204601A9ADF80430ADF806300292ADF805
:1012EC000C308DF80E30FFF78BF920460121FFF7FB
:1012FC001FFA04B010BD00BF0008004030B51A4CF6
:10130C0087B07023ADF8043002250123204601A9D3
:10131C00ADF806300393ADF81050FFF761FA204694
:10132C000821FFF701FD204601A90395FFF714FBE7
:10133C0020460821FFF742FD04230DEB0301204654
:10134C000393FFF7C1FB20460821FFF773FD06232B
:10135C00204601A90393FFF765FC20460821FFF7FF
:10136C009BFD07B030BD00BF0008004008B5FFF77B
:10137C00C7FEFFF775FFFFF7A3FFFFF7BFFFFEE701
:10138C00014B1868704700BF7C000020034613F81F
:10139C00012B002AFBD1181A0138704730B5141EE6
:1013AC009BB0054604DA8B2303604FF0FF301CE042
:1013BC004FF4027200910491ADF80C2014BF04F1AB
:1013CC00FF3121464FF6FF7202910591ADF80E20C8
:1013DC0069461A461E9B00F077F8431CBCBF8B2352
:1013EC002B6014B1009B00221A701BB030BD0000A2
:1013FC0073B50093054B06460D46144618683146E6
:10140C002A462346FFF7CAFF02B070BD7C000020BD
:10141C002DE9F0478D68AB4281460C4692461F463B
:10142C0043D38B8913F4906F3DD026680969C1EBC7
:10143C0006086669022206EB460696FBF2F608F1F0
:10144C0001023A44964238BF16465B050FD5314629
:10145C0000F026FB054698B12169424600F0B7FA28
:10146C00A38923F4906343F08003A38113E03246F5
:10147C0000F06AFB054670B94846216900F0CCFAC9
:10148C000C23C9F80030A38943F04003A3814FF02B
:10149C00FF30BDE8F087256166614544C8EB060660
:1014AC002560A6603D46AF4200D23D462A462068E4
:1014BC00514600F095FAA3685B1BA36023681D449A
:1014CC0025600020BDE8F0872DE9F0439DB007466C
:1014DC0003938B891C060D4616460CD50B6953B924
:1014EC00402100F0DDFA2860286110B90C233B6024
:1014FC00C8E040236B610023099320238DF8293029
:10150C0030238DF82A3033461C4613F8012B1AB9B8
:10151C00B4EB06090FD002E0252AF5D1F8E73846DE
:10152C00294632464B46FFF773FF013000F0A58089
:10153C00099B4B4409932378002B00F09E800023D9
:10154C004FF0FF3204930793059206938DF85330B6
:10155C001A9304F101094C464D4E21783046052270
:10156C0000F026FA09F10109049B28B1861B012021
:10157C00B04003430493EEE7D90644BF20228DF814
:10158C0053201A0744BF2B228DF8532022782A2A85
:10159C0002D0079B21460EE0039A111D126803919D
:1015AC00002A01DB079204E0524243F00203079247
:1015BC00049301340AE00C4601312278303A092AAE
:1015CC0003D80A2000FB0323F5E7079323782E2B7F
:1015DC001AD163782A2B0AD1039B1A1D1B6803921C
:1015EC00002B04F10204B8BF4FF0FF330BE0611C79
:1015FC0000230C4601312278303A092A03D80A20FC
:10160C0000FB0323F5E70593224E21783046032295
:10161C0000F0CEF930B1861B049B4020B040034350
:10162C000493013421781C488DF828100622661C7E
:10163C0000F0BEF988B1194B33B9039B073323F083
:10164C0007030833039314E003AB0093384604A953
:10165C002A46134BAFF3008007E003AB00933846E8
:10166C0004A92A460E4B00F08FF8B0F1FF3F8046DC
:10167C0003D0099B4344099345E7AB895B0601D42E
:10168C00099801E04FF0FF301DB0BDE8F08300BFBA
:10169C00011E0008071E00080B1E000800000000B9
:1016AC001D1400082DE9F84315461F468A680B697E
:1016BC00DDF820809A42A8BF13462B6091F8432096
:1016CC0006460C460AB101332B602368990602D5F5
:1016DC002B6802332B60236813F006091DD094F895
:1016EC0043302268003318BF012392061FD5E1183E
:1016FC005A1C302081F84300224494F8451082F89B
:10170C004310023313E03046394604F11902012329
:10171C00C047013007D009F10109E2682B68D31AE0
:10172C009945F0DBDBE74FF0FF30BDE8F88330463E
:10173C00394604F14302C0470130F4D023682A68CB
:10174C00E16803F00603042B08BFC2EB0105236913
:10175C00A2680CBF25EAE57500259A42C4BFC3EB0D
:10176C000203ED184FF00009A9450ADA3046394654
:10177C0004F11A020123C0470130D4D009F1010948
:10178C00F2E70020BDE8F8832DE9FF470E7E0C9DA3
:10179C006E2E80460C4691469A4601F1430000F0AD
:1017AC00A58011D8632E22D009D8002E00F0AF806E
:1017BC00582E40F0BF8081F845607B4A4FE0642E84
:1017CC001ED0692E1CD0B5E0732E00F0A48009D871
:1017DC006F2E2BD0702E40F0AD800B6843F02003A1
:1017EC000B6038E0752E21D0782E34D0A2E02B6817
:1017FC001A1D1B682A6001F1420781F842309DE0F6
:10180C0022682B6812F0800F03D01A1D2A601D6805
:10181C0005E05106F9D51A1D2A60B3F90050002DC8
:10182C0039DA2D236D4284F8433034E022682B687A
:10183C0012F0800F03D01A1D2A601D6804E05206B6
:10184C00F9D51A1D2A601D88237E574A6F2B14BFA9
:10185C000A2308231BE07823544A84F84530236874
:10186C00296813F0800F01F104062E6001D00D6879
:10187C0002E05F06FBD50D88DE0744BF43F0200372
:10188C0023601DB9236823F020032360102300215B
:10189C0084F8431001E0444A0A236668A660002ECF
:1018AC0003DB216821F00401216005B96EB104F15C
:1018BC004201B5FBF3F603FB16550F46555D01F8D7
:1018CC0001593546002EF4D100E00746082B0AD109
:1018DC002368DD0707D5626823699A4203DC30234D
:1018EC0007F8013C013FC01B20612CE009682B6804
:1018FC00626911F0800F04D0191D29601B681A60F1
:10190C0005E04906F8D5191D29601B681A800023CB
:10191C002361074617E02B681A1D2A601F6838469A
:10192C00FFF734FD63682061984288BF2361236907
:10193C00636005E004F1420784F8426001232361EF
:10194C00002384F84330CDF800A04046214603AA7A
:10195C004B46FFF7A7FE013002D14FF0FF301FE0DE
:10196C00404649463A462369D0470130F5D02368B2
:10197C009B0705D4E068039B9842B8BF18460FE05C
:10198C000025E268039BD31A9D42F3DA4046494690
:10199C0004F119020123D0470130DED00135F0E704
:1019AC0004B0BDE8F08700BF121E0008231E00081B
:1019BC0010B5C9B202449042034606D01C788C4242
:1019CC0000F10100F7D1184610BD002010BD10B574
:1019DC000023934203D0CC5CC4540133F9E710BD0F
:1019EC00814270B501D300230EE08C18A042FAD2CC
:1019FC008518134613F1FF3305D351426618294459
:101A0C00F65CCE54F6E770BD934203D0CC5CC45464
:101A1C000133F9E770BD000030B500293CD051F816
:101A2C00042C0B1F1D49002AB8BF9B180A680C46D2
:101A3C0012B95A600B6030BD93420DD21968581818
:101A4C00904203D15A581144426819605A6023607D
:101A5C0030BD994203D80A4651680029F9D114685F
:101A6C0015199D420AD11B682344D0188842136073
:101A7C0012D10868034413604B680CE002D90C23A4
:101A8C00036030BD18681C188C4203D10C6849687F
:101A9C00204418605960536030BD00BF0C01002019
:101AAC0070B5CD1C25F0030508350C2D38BF0C2561
:101ABC00002D06463FDB8D423DD3214B1C6818465A
:101ACC002146A1B10B685B1B0ED40B2B03D90B6009
:101ADC00CC18CD501FE08C4202D1626802601AE033
:101AEC004B6863600C4616E00C464968E9E7154CF8
:101AFC0023681BB9304600F04DF82060294630466B
:101B0C0000F048F8431C014615D0C41C24F0030413
:101B1C0084420AD1256004F10B00231D20F007003C
:101B2C00C31A0BD05A42E25070BD3046611A00F015
:101B3C0031F80130EED10C233360002070BD00BFB2
:101B4C000C01002008010020F8B5064614460D468D
:101B5C0021B91146BDE8F840FFF7A2BF1AB9FFF74B
:101B6C005BFF2046F8BD00F025F8A0420ED23046AF
:101B7C002146FFF795FF074650B129462246FFF74D
:101B8C0026FF30462946FFF747FF01E02846F8BDFF
:101B9C003846F8BD38B5064C002305460846236088
:101BAC00FFF7BAF9431C02D1236803B12B6038BD8F
:101BBC001001002051F8040C002802DA04390B58EB
:101BCC001844043870472E2E2F73797374656D2F5B
:101BDC007372632F73746D333266342F73746D3379
:101BEC0032663478785F6770696F2E63002E2E2F03
:101BFC0073797374656D2F7372632F73746D3332D5
:101C0C0066342F73746D3332663478785F72636325
:101C1C002E63002E2E2F73797374656D2F73726380
:101C2C002F73746D333266342F73746D33326634A4
:101C3C0078785F74696D2E630061626F7274282905
:101C4C002C2065786974696E672E2E2E002C206608
:101C5C00756E6374696F6E3A20006173736572748C
:101C6C00696F6E2022257322206661696C65643A67
:101C7C002066696C6520222573222C206C696E65A8
:101C8C00202564257325730A006173736572745F74
:101C9C00706172616D2829206661696C65643A20F7
:101CAC0066696C6520222573222C206C696E652078
:101CBC0025640A006D61696E28617267633D256455
:101CCC002C20617267763D5B002C2000222573224C
:101CDC00005D293B0A00537461636B206672616D71
:101CEC00653A0A00205230203D2020253038580A11
:101CFC0000205231203D2020253038580A00205237
:101D0C0032203D2020253038580A00205233203D07
:101D1C002020253038580A0020523132203D202511
:101D2C003038580A00204C52203D2020253038589D
:101D3C000A00205043203D2020253038580A00202E
:101D4C00505352203D20253038580A004653522F0C
:101D5C004641523A0A002043465352203D2020254A
:101D6C003038580A002048465352203D2020253058
:101D7C0038580A002044465352203D202025303844
:101D8C00580A002041465352203D20202530385817
:101D9C000A00204D4D464152203D20253038580A2E
:101DAC00002042464152203D2020253038580A0060
:101DBC004D6973630A00204C522F4558435F5245BE
:101DCC005455524E3D20253038580A005B486172FC
:101DDC00644661756C745D0A005B4275734661758F
:101DEC006C745D0A005B55736167654661756C7454
:101DFC005D0A004300232D302B2000686C4C0065DD
:101E0C00666745464700303132333435363738391A
:101E1C00414243444546003031323334353637384D
:081E2C00396162636465660020
:101E340084000020000000000000000000000000FA
:101E44000102030406070809007A030A00000000DF
:101E5400000000000000000000000000000000007E
:101E6400000000000000000000000000FF1D00084A
:101E7400000000000000000000000000000000005E
:101E8400000000000000000000000000000000004E
:101E9400000000000000000000000000000000003E
:101EA4000000000000000000000000001C000020F2
:040000050800018965
:00000001FF
