:020000040800F2
:1000000000000220B9020008C1020008C502000871
:100010000D03000811030008590300080000000048
:10002000000000000000000000000000A103000824
:10003000A503000800000000A9030008AD030008A4
:10004000BD030008BD030008BD030008BD03000890
:10005000BD030008BD030008BD030008BD03000880
:10006000BD030008BD030008BD030008BD03000870
:10007000BD030008BD030008BD030008BD03000860
:10008000BD030008BD030008BD030008BD03000850
:10009000BD030008BD030008BD030008BD03000840
:1000A000BD030008BD030008BD030008BD03000830
:1000B000BD030008BD030008BD030008BD03000820
:1000C000BD030008BD030008BD030008BD03000810
:1000D000BD030008BD030008BD030008BD03000800
:1000E000BD030008BD030008BD030008BD030008F0
:1000F000BD030008BD030008BD030008BD030008E0
:10010000BD030008BD030008BD030008BD030008CF
:10011000BD030008BD030008BD030008BD030008BF
:10012000BD030008BD030008BD030008BD030008AF
:10013000BD030008BD030008BD030008BD0300089F
:10014000BD030008BD030008BD030008BD0300088F
:10015000BD030008BD030008BD030008BD0300087F
:10016000BD030008BD030008BD030008BD0300086F
:10017000BD030008BD030008BD0300080000000027
:10018000BD030008BD03000800B583B000F0B2FF56
:10019000384B394A1360394A136039490CE00A6810
:1001A0004B6801F10C04886803E01168196004339E
:1001B00004329842F9D82146324B9942EFD32E4B64
:1001C0001A68314B9A4204D12C4B1A682F4B9A4231
:1001D00000D0FEE7274B2E4A13602E4A13602E4BA9
:1001E0000AE0194651F8082B5B6802E00020106015
:1001F00004329342FAD80B46284A9342F1D3244B57
:100200001B6813B9234B1B6803B1FEE700F076FFB0
:1002100001A8694600F008FF214B224DED1AAD10F0
:10022000002404E01E4B53F8243098470134A542C3
:10023000F8DC1D4B1D4DED1AAD10002404E01A4BE7
:1002400053F8243098470134A542F8DC019800990E
:1002500001F022F90546164B164CE41AA41004E0EE
:10026000013C134B53F824309847002CF8DC284607
:1002700000F0ACFEBABADECA000000208400002004
:10028000C0030008D8030008785634123254769818
:100290008800002020010020D8030008E80300089F
:1002A000E8030008E8030008E8030008E803000882
:1002B000E8030008E803000808B5FFF765FF00BF82
:1002C00000BEFEE71EF0040F0CBFEFF30880EFF353
:1002D00009807146364A10472DE9F04182B0074641
:1002E0008846084C666BA56BA46A074800F0B0FE10
:1002F000CDF800803846214632462B4600F002FFFA
:1003000000BEFEE700ED00E0341F000800BEFEE77F
:100310001EF0040F0CBFEFF30880EFF30980714665
:10032000244A10472DE9F04182B007468846084C20
:10033000666BA56BA46A074800F08AFECDF80080C2
:100340003846214632462B4600F0DCFE00BEFEE772
:1003500000ED00E0441F00081EF0040F0CBFEFF397
:100360000880EFF309807146134A10472DE9F041E8
:1003700082B007468846084C666BA56BA46A07489E
:1003800000F066FECDF800803846214632462B4606
:1003900000F0B8FE00BEFEE700ED00E0501F0008D0
:1003A00000BEFEE700BEFEE700BEFEE770470000AD
:1003B000D9020008250300086D03000800BEFEE70F
:1003C000981F00080000002088000020981F0008E7
:1003D0000000001000000010880000202401002010
:0803E0000000001000000010F5
:1003E8002DE9F04105460E464C4B98422BD003F5BB
:1003F8008063984227D003F58063984223D003F5A1
:10040800806398421FD003F5806398421BD003F5A0
:100418008063984217D003F58063984213D003F5A0
:10042800806398420FD003F5806398420BD003F5A0
:100438008063984207D003F58063984203D0384818
:10044800CF2100F0F5FD33881BB93548D02100F0E5
:10045800EFFD3379032B03D93148D12100F0E8FDB2
:10046800F379022B03D92E48D22100F0E1FD0024B4
:100478004FE00123A34032681A409A4248D12B68C2
:1004880067004FF0030808FA07F86FEA080803EA5C
:1004980008032B602A683379BB4013432B603379F8
:1004A800013BDBB2012B24D87379032B03D91C48F9
:1004B800E42100F0BDFDAB6808EA0303AB60AA685D
:1004C8007379BB401343AB60B379012B03D914484C
:1004D800EB2100F0ADFD6968A3B201229A4021EA40
:1004E80002026A606A68B17901FA03F39BB21343A6
:1004F8006B60EA68A3B25B00032101FA03F322EA06
:100508000303EB60EB68F27902FA07F71F43EF6029
:1005180001340F2CADD9BDE8F08100BF00000240C6
:10052800F41C000870B504460E4615463B4B98422D
:100538002CD003F58063984228D003F58063984255
:1005480024D003F58063984220D003F58063984255
:100558001CD003F58063984218D003F58063984255
:1005680014D003F58063984210D003F58063984255
:100578000CD003F58063984208D003F58063984255
:1005880004D0274840F2492100F052FD0F2E04D92B
:10059800234840F24A2100F04BFD4DB3092D27D0E6
:1005A80035B3012D24D0022D22D0032D20D0042DC7
:1005B8001ED0052D1CD0092D1AD0062D18D0092DB6
:1005C80016D0072D14D0082D12D0092D10D00A2DC1
:1005D8000ED00B2D0CD00C2D0AD00D2D08D00F2DC0
:1005E80006D00C2D04D00E4840F24B2100F020FD1F
:1005F80006F007039B009D40F108083154F82120BC
:100608000F2000FA03F322EA030344F8213054F8D8
:1006180021301D4344F8215070BD00BF0000024046
:10062800F41C000838B504460D460E4B034003B9C8
:1006380020B90D4840F2017100F0FAFC012D04D9EF
:10064800094840F2037100F0F3FC25B1074B1A6B1F
:1006580014431C6338BD054B1A6B22EA04041C635F
:1006680038BD00BF00E80B811C1D0008003802409F
:1006780038B504460D4610F4585F00D120B90C482F
:1006880040F2777100F0D4FC012D04D908484FF4EA
:10069800EF6100F0CDFC25B1064B1A6C14431C64C5
:1006A80038BD044B1A6C22EA04041C6438BD00BF30
:1006B8001C1D00080038024038B504460D46484B5A
:1006C800984237D0B0F1804F34D0A3F57C4398429C
:1006D80030D003F5806398422CD003F580639842AC
:1006E80028D003F58063984224D003F580639842AC
:1006F80020D003F5704398421CD003F570539842FC
:1007080018D003F58063984214D003F580639842AB
:1007180010D0A3F5983398420CD003F58063984223
:1007280008D003F58063984204D02E4840F2251182
:1007380000F07EFC6B8863B1102B0AD0202B08D008
:10074800402B06D0602B04D026484FF4937100F05C
:100758006FFC2B8953B1B3F5807F07D0B3F5007FC9
:1007680004D0204840F2271100F062FC23889BB295
:100778001B4A944212D002F5806294420ED0B4F122
:10078800804F0BD0A2F58032944207D002F58062E8
:10079800944203D002F58062944203D123F070039F
:1007A8006A881343104A944208D002F58062944242
:1007B80004D023F440739BB22A89134323806B68C7
:1007C800E3622B882385064B9C4203D003F58063A4
:1007D8009C4201D1AB7A23860123A38238BD00BF96
:1007E80000000140441D00080010004038B50446D0
:1007F8000D46284B984237D0B0F1804F34D0A3F53E
:100808007C43984230D003F5806398422CD003F59E
:100818008063984228D003F58063984224D003F57A
:100828008063984220D003F5704398421CD003F5AA
:100838007053984218D003F58063984214D003F59A
:100848008063984210D0A3F5983398420CD003F5F2
:100858008063984208D003F58063984204D00E481C
:1008680040F2532100F0E4FB012D04D90A484FF46B
:10087800157100F0DDFB2DB123889BB243F0010315
:10088800238038BD238823F001031B041B0C23801D
:1008980038BD00BF00000140441D00082DE9F041AB
:1008A80004460D46584B98422FD0B0F1804F2CD0BB
:1008B800A3F57C43984228D003F58063984224D05E
:1008C80003F58063984220D003F5784398421CD002
:1008D80003F57053984218D003F58063984214D0FA
:1008E80003F58063984210D0A3F5983398420CD052
:1008F80003F58063984208D003F58063984204D0DA
:10090800424840F2A62100F093FB2B8873B1102BCC
:100918000CD0202B0AD0302B08D0602B06D0702B9F
:1009280004D03A4840F2A72100F082FB6B88012BE3
:1009380004D936484FF42A7100F07AFBAB8933B1F9
:10094800022B04D0314840F2A92100F071FB238C1E
:1009580023F001031B041B0C2384238CA788BFB23C
:10096800228B22F073021204120CB5F8008048EAB8
:10097800020823F002031B041B0CAE8933436E8864
:100988001E43214B9C4203D003F580639C4233D124
:10099800AB8833B1042B04D01C4840F2C62100F0C8
:1009A80047FBEB8933B1082B04D0184840F2C72124
:1009B80000F03EFB6B8AB3F5007F05D023B11348E6
:1009C8004FF4327100F034FB2B8AB3F5807F05D0E9
:1009D80023B10E4840F2C92100F02AFB26F0080690
:1009E800EA89164326F00406AB881E4327F44077AD
:1009F8002B8A1F436B8A1F43A780A4F81880AB6813
:100A080063632684BDE8F08100000140441D0008AE
:100A18002DE9F04104460D46584B98421FD0B0F1DD
:100A2800804F1CD0A3F57C43984218D003F580630F
:100A3800984214D003F58063984210D003F57843A8
:100A480098420CD003F57053984208D0A3F594331C
:100A5800984204D04A4840F2F72100F0E9FA2B887E
:100A680073B1102B0CD0202B0AD0302B08D0602B60
:100A780006D0702B04D042484FF43E7100F0D8FAEB
:100A88006B88012B04D93E4840F2F92100F0D0FAD6
:100A9800AB8933B1022B04D0394840F2FA2100F077
:100AA800C7FA238C23F010031B041B0C2384238C0C
:100AB800A788BFB2228B22F4E6421204120CB5F8C2
:100AC80000804FEA08281FFA88F848EA020823F04D
:100AD80020031B041B0CAE893601B6B233436E8863
:100AE8003601B6B21E43254B9C4203D003F5806302
:100AF8009C423BD1AB8833B1042B04D020484FF43F
:100B0800467100F095FAEB8933B1082B04D01C48E4
:100B180040F2193100F08CFA6B8AB3F5007F05D0EA
:100B280023B1174840F21A3100F082FA2B8AB3F544
:100B3800807F05D023B1124840F21B3100F078FACB
:100B480026F08006EA89120192B2164326F0400682
:100B5800AB881B019BB21E4327F440672B8A9B007E
:100B68009BB23B436F8ABF00BFB21F43A780A4F864
:100B78001880AB68A3632684BDE8F08100000140BB
:100B8800441D00082DE9F04104460D46524B984299
:100B980017D0B0F1804F14D0A3F57C43984210D001
:100BA80003F5806398420CD003F58063984208D01F
:100BB80003F57843984204D048484FF4527100F046
:100BC80037FA2B8873B1102B0CD0202B0AD0302B7E
:100BD80008D0602B06D0702B04D0404840F2493131
:100BE80000F026FA6B88012B04D93C4840F24A31C0
:100BF80000F01EFAAB8933B1022B04D0374840F21B
:100C08004B3100F015FA238C23F480731B041B0C62
:100C18002384238CA788BFB2A28B22F0730212040C
:100C2800120CB5F8008048EA020823F400731B048C
:100C38001B0CAE893602B6B233436E883602B6B2A2
:100C48001E43254B9C4203D003F580639C423BD155
:100C5800AB8833B1042B04D020484FF45A7100F00C
:100C6800E7F9EB8933B1082B04D01C4840F269310D
:100C780000F0DEF96B8AB3F5007F05D023B1174881
:100C880040F26A3100F0D4F92B8AB3F5807F05D0A1
:100C980023B1124840F26B3100F0CAF926F400661D
:100CA800EA89120292B2164326F48066AB881B02C8
:100CB8009BB21E4327F440572B8A1B019BB23B4330
:100CC8006F8A3F01BFB21F43A780A4F81C80AB689E
:100CD800E3632684BDE8F08100000140441D00085C
:100CE8002DE9F04104460D463E4B984217D0B0F12D
:100CF800804F14D0A3F57C43984210D003F580634D
:100D080098420CD003F58063984208D003F57843E5
:100D1800984204D034484FF4667100F089F92B8862
:100D280073B1102B0CD0202B0AD0302B08D0602B9D
:100D380006D0702B04D02C4840F2993100F078F995
:100D48006B88012B04D9284840F29A3100F070F9D9
:100D5800AB8933B1022B04D0234840F29B3100F019
:100D680067F9238C23F480531B041B0C2384238CE6
:100D7800A688B6B2A28B22F4E6421204120CB5F889
:100D880000804FEA08281FFA88F848EA020823F486
:100D980000531B041B0CAF893F03BFB23B436F8852
:100DA8003F03BFB21F430F4B9C4203D003F5806340
:100DB8009C420FD12B8AB3F5807F05D023B10A4816
:100DC80040F2B93100F034F926F480462B8A9B01B1
:100DD8009BB21E43A680A4F81C80AB6823642784BA
:100DE800BDE8F08100000140441D000838B5044604
:100DF8000D46214B98422FD0B0F1804F2CD0A3F54F
:100E08007C43984228D003F58063984224D003F5A8
:100E18008063984220D003F5784398421CD003F5AC
:100E28007053984218D003F58063984214D003F5A4
:100E38008063984210D0A3F5983398420CD003F5FC
:100E48008063984208D003F58063984204D00B4829
:100E580040F2DB4100F0ECF8082D05D025B1074839
:100E680040F2DC4100F0E4F8238B23F008031B0474
:100E78001B0C2B43238338BD00000140441D000890
:100E880038B504460D461A4B98421FD0B0F1804F32
:100E98001CD0A3F57C43984218D003F58063984290
:100EA80014D003F58063984210D003F57843984234
:100EB8000CD003F57053984208D0A3F594339842A8
:100EC80004D00C4840F2F94100F0B2F8082D05D0E2
:100ED80025B1084840F2FA4100F0AAF8238B23F420
:100EE80000631B041B0C2D02ADB22B43238338BDBA
:100EF80000000140441D000838B504460D46154B56
:100F0800984217D0B0F1804F14D0A3F57C43984293
:100F180010D003F5806398420CD003F580639842A3
:100F280008D003F57843984204D00B4840F2165194
:100F380000F07EF8082D05D025B1074840F217517A
:100F480000F076F8A38B23F008031B041B0C2B433B
:100F5800A38338BD00000140441D000838B504468D
:100F68000D46164B984217D0B0F1804F14D0A3F518
:100F78007C43984210D003F5806398420CD003F567
:100F88008063984208D003F57843984204D00C480F
:100F980040F2335100F04CF8082D05D025B108482F
:100FA80040F2345100F044F8A38B23F400631B048F
:100FB8001B0C2D02ADB22B43A38338BD00000140AA
:100FC800441D0008FEE700BF08B5034800F056F8C6
:100FD8000120FFF7F7FF00BF6C1D000808B50D4B97
:100FE8001B6813B90C4A0B4B1A600A4B1B68033079
:100FF80020F003001844094A904206D900F052FA3A
:101008000C2303604FF0FF3008BD024A10601846F9
:1010180008BD00BF8C0000202401002000FC012036
:1010280001230360014B0B60704700BF04000020E0
:1010380008B503460A460348194600F005F8FFF7C5
:10104800C3FF00BFC01D00080FB400B583B004ABD8
:1010580053F8042B01930848802100F05BFA011E25
:1010680003DD054800F03EF80146084603B05DF888
:1010780004EB04B0704700BF9400002010B504468C
:1010880000F016FA0146204600F02CF8024801212B
:1010980000F028F810BD00BFB01E000810B40022F0
:1010A8001AE04FF06043D3F8803E13F0010F06D0EA
:1010B8004FF06043D3F8003E13F0010F01D1104602
:1010C8000DE04FF060431B68002BFAD004784FF016
:1010D80060431C70013201308A42E2D308465DF851
:1010E800044B704708B5FFF7D9FF08BD08B500F0F5
:1010F800DDF808BD08B500F0FBF808BDF8B50446F2
:101108000D4617461E462648FFF79EFF25482168CC
:10111800FFF79AFF24486168FFF796FF2348A16804
:10112800FFF792FF2248E168FFF78EFF2148216907
:10113800FFF78AFF20486169FFF786FF1F48A1690A
:10114800FFF782FF1E48E169FFF77EFF1D48FFF7A2
:101158007BFF1D482946FFF777FF1C4CE16A1C48B6
:10116800FFF772FF216B1B48FFF76EFFE16B1A4810
:10117800FFF76AFF15F0800F03D018483946FFF7CC
:1011880063FF15F4004F03D015483146FFF75CFFA5
:101198001448FFF759FF14480699FFF755FFF8BDA3
:1011A800181E0008281E0008381E0008481E0008DF
:1011B800581E0008681E0008781E0008881E0008CF
:1011C800981E0008A81E0008B41E000800ED00E0E4
:1011D800C41E0008D41E0008E41E0008F41E0008FF
:1011E800041F0008141F00081C1F000882B00023F9
:1011F80001930093294B1A6842F480321A60274BF6
:101208001B6803F400330093019B01330193009B97
:101218001BB9019BB3F5A04FF1D1204B1B6813F408
:10122800003F14BF012300230093009B012B32D100
:101238001A4B1A6C42F080521A64194A116841F428
:10124800404111609A689A609A6842F400429A6034
:101258009A6842F4A0529A60124A5A601A6842F098
:1012680080721A600D4B1B6813F0007FFAD040F2B1
:1012780005720D4B1A60A3F580639A6822F0030289
:101288009A609A6842F002029A60044B9B6803F0E5
:101298000C03082BF9D102B0704700BF0038024098
:1012A8000070004008544007003C024008B50D4B50
:1012B8001A6842F001021A60002199601A6822F047
:1012C800847222F480321A60074A5A601A6822F43B
:1012D80080221A60D960FFF789FF4FF00062034B44
:1012E8009A6008BD003802401030002400ED00E08C
:1012F8001E4B9B6803F00C03042B06D0082B08D068
:1013080023BB1B4A1B4B1A6023E01B4A194B1A606C
:101318001FE0164B59685B6803F03F0311F4800F18
:1013280014BF154A124AB2FBF3F3104A5268C2F3CB
:10133800881202FB03F20D4B5B68C3F301430133D0
:101348005B00B2FBF3F20B4B1A6002E0084A094B50
:101358001A60064B9B68C3F30313084AD15CC9B2F1
:10136800044B1A68CA401A60704700BF0038024030
:101378000024F4001C00002000127A000C00002059
:1013880010B582B008200121FFF74CF9144C204613
:101398000C210222FFF7C6F820460D210222FFF792
:1013A800C1F820460E210222FFF7BCF820460F2183
:1013B8000222FFF7B7F84FF47043009300238DF82B
:1013C80006308DF8073002238DF8043003238DF89A
:1013D800053020466946FFF703F802B010BD00BF8C
:1013E800000C024010B584B004200121FFF740F939
:1013F8000023ADF80430ADF8063005220292ADF8AE
:101408000C308DF80E30054C204601A9FFF754F931
:1014180020460121FFF7EAF904B010BD000800409A
:1014280030B587B07023ADF804300123ADF806302D
:101438000225ADF810500393144C204601A9FFF77C
:101448002DFA20460821FFF7D1FC0395204601A973
:10145800FFF7DEFA20460821FFF712FD0423039365
:1014680020460DEB0301FFF78DFB20460821FFF70F
:1014780043FD06230393204601A9FFF731FC2046CC
:101488000821FFF76BFD07B030BD00BF0008004022
:1014980008B5FFF70BFFFFF773FFFFF7A3FFFFF791
:1014A800BFFFFEE7014B1868704700BF80000020AF
:1014B800034613F8012B002AFBD1181A013870478C
:1014C80030B5141E9BB0054604DA8B2303604FF039
:1014D800FF301CE04FF4027200910491ADF80C202B
:1014E80014BF04F1FF3121464FF6FF7202910591B6
:1014F800ADF80E2069461A461E9B00F077F8431C8B
:10150800BCBF8B232B6014B1009B00221A701BB048
:1015180030BD000073B50093054B06460D461446D2
:10152800186831462A462346FFF7CAFF02B070BD45
:10153800800000202DE9F0478D68AB4281460C46BB
:1015480092461F4643D38B8913F4906F3DD026688B
:101558000969C1EB06086669022206EB460696FB96
:10156800F2F608F101023A44964238BF16465B0586
:101578000FD5314600F026FB054698B12169424651
:1015880000F0B7FAA38923F4906343F08003A381A2
:1015980013E0324600F06AFB054670B948462169F7
:1015A80000F0CCFA0C23C9F80030A38943F04003BB
:1015B800A3814FF0FF30BDE8F0872561666145449F
:1015C800C8EB06062560A6603D46AF4200D23D4600
:1015D8002A462068514600F095FAA3685B1BA36071
:1015E80023681D4425600020BDE8F0872DE9F043FD
:1015F8009DB0074603938B891C060D4616460CD5ED
:101608000B6953B9402100F0DDFA2860286110B950
:101618000C233B60C8E040236B610023099320231F
:101628008DF8293030238DF82A3033461C4613F8BC
:10163800012B1AB9B4EB06090FD002E0252AF5D11F
:10164800F8E73846294632464B46FFF773FF013024
:1016580000F0A580099B4B4409932378002B00F0E8
:101668009E8000234FF0FF32049307930592069360
:101678008DF853301A9304F101094C464D4E2178E8
:101688003046052200F026FA09F10109049B28B129
:10169800861B0120B04003430493EEE7D90644BFFC
:1016A80020228DF853201A0744BF2B228DF853208F
:1016B80022782A2A02D0079B21460EE0039A111DA0
:1016C80012680391002A01DB079204E0524243F0BA
:1016D80002030792049301340AE00C460131227890
:1016E800303A092A03D80A2000FB0323F5E70793B9
:1016F80023782E2B1AD163782A2B0AD1039B1A1D23
:101708001B680392002B04F10204B8BF4FF0FF33AB
:101718000BE0611C00230C4601312278303A092A7B
:1017280003D80A2000FB0323F5E70593224E21780E
:101738003046032200F0CEF930B1861B049B4020CE
:10174800B04003430493013421781C488DF82810D5
:101758000622661C00F0BEF988B1194B33B9039B09
:10176800073323F007030833039314E003AB009314
:10177800384604A92A46134BAFF3008007E003ABB1
:101788000093384604A92A460E4B00F08FF8B0F1B2
:10179800FF3F804603D0099B4344099345E7AB8943
:1017A8005B0601D4099801E04FF0FF301DB0BDE899
:1017B800F08300BF621F0008681F00086C1F000844
:1017C800000000003D1500082DE9F84315461F46A6
:1017D8008A680B69DDF820809A42A8BF13462B60FF
:1017E80091F8432006460C460AB101332B60236862
:1017F800990602D52B6802332B60236813F006097B
:101808001DD094F843302268003318BF0123920694
:101818001FD5E1185A1C302081F84300224494F85F
:10182800451082F84310023313E03046394604F17C
:1018380019020123C047013007D009F10109E26804
:101848002B68D31A9945F0DBDBE74FF0FF30BDE892
:10185800F8833046394604F14302C0470130F4D0DA
:1018680023682A68E16803F00603042B08BFC2EB6B
:1018780001052369A2680CBF25EAE57500259A428F
:10188800C4BFC3EB0203ED184FF00009A9450ADAFB
:101898003046394604F11A020123C0470130D4D03A
:1018A80009F10109F2E70020BDE8F8832DE9FF47B7
:1018B8000E7E0C9D6E2E80460C4691469A4601F18E
:1018C800430000F0A58011D8632E22D009D8002E3D
:1018D80000F0AF80582E40F0BF8081F845607B4A09
:1018E8004FE0642E1ED0692E1CD0B5E0732E00F098
:1018F800A48009D86F2E2BD0702E40F0AD800B68D5
:1019080043F020030B6038E0752E21D0782E34D0B8
:10191800A2E02B681A1D1B682A6001F1420781F8B2
:1019280042309DE022682B6812F0800F03D01A1D08
:101938002A601D6805E05106F9D51A1D2A60B3F919
:101948000050002D39DA2D236D4284F8433034E0FD
:1019580022682B6812F0800F03D01A1D2A601D68B8
:1019680004E05206F9D51A1D2A601D88237E574ABD
:101978006F2B14BF0A2308231BE07823544A84F8EA
:1019880045302368296813F0800F01F104062E60A2
:1019980001D00D6802E05F06FBD50D88DE0744BF65
:1019A80043F0200323601DB9236823F0200323603C
:1019B8001023002184F8431001E0444A0A23666892
:1019C800A660002E03DB216821F00401216005B91F
:1019D8006EB104F14201B5FBF3F603FB16550F4651
:1019E800555D01F801593546002EF4D100E007464F
:1019F800082B0AD12368DD0707D5626823699A4254
:101A080003DC302307F8013C013FC01B20612CE0B8
:101A180009682B68626911F0800F04D0191D2960CC
:101A28001B681A6005E04906F8D5191D29601B686E
:101A38001A8000232361074617E02B681A1D2A60C5
:101A48001F683846FFF734FD63682061984288BFF5
:101A580023612369636005E004F1420784F842606A
:101A680001232361002384F84330CDF800A04046C9
:101A7800214603AA4B46FFF7A7FE013002D14FF0DB
:101A8800FF301FE0404649463A462369D0470130B7
:101A9800F5D023689B0705D4E068039B9842B8BF3C
:101AA80018460FE00025E268039BD31A9D42F3DA3B
:101AB8004046494604F119020123D0470130DED0DF
:101AC8000135F0E704B0BDE8F08700BF731F0008D8
:101AD800841F000810B5C9B202449042034606D0DC
:101AE8001C788C4200F10100F7D1184610BD002087
:101AF80010BD10B50023934203D0CC5CC45401330D
:101B0800F9E710BD814270B501D300230EE08C18AF
:101B1800A042FAD28518134613F1FF3305D3514278
:101B280066182944F65CCE54F6E770BD934203D09C
:101B3800CC5CC4540133F9E770BD000030B500290E
:101B48003CD051F8042C0B1F1D49002AB8BF9B1824
:101B58000A680C4612B95A600B6030BD93420DD228
:101B680019685818904203D15A58114442681960AC
:101B78005A60236030BD994203D80A46516800294B
:101B8800F9D1146815199D420AD11B682344D0184D
:101B98008842136012D10868034413604B680CE054
:101BA80002D90C23036030BD18681C188C4203D17D
:101BB8000C684968204418605960536030BD00BF04
:101BC8001801002070B5CD1C25F0030508350C2D33
:101BD80038BF0C25002D06463FDB8D423DD3214BF7
:101BE8001C6818462146A1B10B685B1B0ED40B2B51
:101BF80003D90B60CC18CD501FE08C4202D162682B
:101C080002601AE04B6863600C4616E00C464968AF
:101C1800E9E7154C23681BB9304600F04DF8206001
:101C28002946304600F048F8431C014615D0C41C2C
:101C380024F0030484420AD1256004F10B00231D1B
:101C480020F00700C31A0BD05A42E25070BD30464C
:101C5800611A00F031F80130EED10C233360002016
:101C680070BD00BF1801002014010020F8B5064619
:101C780014460D4621B91146BDE8F840FFF7A2BF4A
:101C88001AB9FFF75BFF2046F8BD00F025F8A0421F
:101C98000ED230462146FFF795FF074650B1294638
:101CA8002246FFF726FF30462946FFF747FF01E0A7
:101CB8002846F8BD3846F8BD38B5064C0023054619
:101CC80008462360FFF78AF9431C02D1236803B151
:101CD8002B6038BD1C01002051F8040C002802DAE2
:101CE80004390B5818440438704700002E2E2F73FF
:101CF800797374656D2F7372632F73746D333266E5
:101D0800342F73746D3332663478785F6770696F17
:101D18002E6300002E2E2F73797374656D2F7372E6
:101D2800632F73746D333266342F73746D33326678
:101D38003478785F7263632E630000002E2E2F7351
:101D4800797374656D2F7372632F73746D33326694
:101D5800342F73746D3332663478785F74696D2EFE
:101D68006300000061626F727428292C206578690D
:101D780074696E672E2E2E002C2066756E6374694A
:101D88006F6E3A2000000000617373657274696FAA
:101D98006E2022257322206661696C65643A20668C
:101DA800696C6520222573222C206C696E652025BC
:101DB80064257325730A00006173736572745F701C
:101DC8006172616D2829206661696C65643A2066D4
:101DD800696C6520222573222C206C696E6520258C
:101DE800640A00006D61696E28617267633D25644D
:101DF8002C20617267763D5B000000002C200000FB
:101E080022257322000000005D293B0A0000000023
:101E1800537461636B206672616D653A0A00000055
:101E2800205230203D2020253038580A000000007C
:101E3800205231203D2020253038580A000000006B
:101E4800205232203D2020253038580A000000005A
:101E5800205233203D2020253038580A0000000049
:101E680020523132203D20253038580A0000000029
:101E7800204C52203D2020253038580A0000000010
:101E8800205043203D2020253038580A000000000B
:101E980020505352203D20253038580A00000000B9
:101EA8004653522F4641523A0A00000020434653F7
:101EB80052203D2020253038580A0000204846533B
:101EC80052203D2020253038580A0000204446532F
:101ED80052203D2020253038580A00002041465322
:101EE80052203D2020253038580A0000204D4D460C
:101EF8004152203D20253038580A000020424641F2
:101F080052203D2020253038580A00004D6973635F
:101F18000A000000204C522F4558435F5245545543
:101F2800524E3D20253038580A0000005B48617247
:101F3800644661756C745D0A000000005B4275734D
:101F48004661756C745D0A005B557361676546612F
:101F5800756C745D0A0000004300232D302B2000AF
:101F6800686C4C006566674546470030313233344B
:101F780035363738394142434445460030313233EB
:0D1F880034353637383961626364656600B0
:101F98007856341290000020000000000000000075
:101FA800000000000102030406070809007A030A7A
:101FB8000000000000000000000000000000000019
:101FC8000000000000000000000000000000000009
:101FD800601F000800000000000000000000000072
:101FE80000000000000000000000000000000000E9
:101FF80000000000000000000000000000000000D9
:1020080000000000000000000000000000000000C8
:082018002000002032547698EC
:040000050800018965
:00000001FF
